:020000040000FA
:020000002F28A7
:100008007E1480312700131C0A280B281A28640044
:10001800F6010430823137228031B530F600823063
:10002800F70081314E21803127001310931C1D28C1
:100038001E282D289310F601043082313722803192
:10004800AC30F6008230F70081314E2180316300F8
:1000580000007E10090030287E102000332822007E
:100068008C013B3021008C0023008C0103302400DC
:100078008C0022008E0123008E0121008E012400B5
:100088008E012100951358309900183097000330DD
:10009800270092008B158B178031B9208031200002
:1000A800A601A70101308231702280312000A6010B
:1000B8000430823117228031BE302000A600823001
:1000C800A70081311B21803102302000AE0045306D
:1000D800AD00A930890B6E28AD0B6E28AE0B6E28CB
:1000E80000322000A6010430823117228031B53059
:1000F8002000A6008230A70081311B21803120001A
:10010800AF01A601A60A02308231172280312000F1
:10011800A201A20A2F08A23E840082300318013EE1
:100128008500000881317E21803102302000AE0038
:100138004530AD00A930890B9F28AD0B9F28AE0B29
:100148009F2800322000A201103081317E218031A9
:1001580001302000AD002D08AF0709302F02031C25
:10016800B628B728852875282F2805302000A6002E
:10017800DD30890BBD28A60BBD28003222008E1267
:1001880030308131CF2180318231C7228031FA303D
:100198000032890BCC288231C72280311030890B7C
:1001A800D32800328231C72280311030890BDA28F7
:1001B800003220308131CF2180318231C722803115
:1001C8001030890BE52800322000A2012830813147
:1001D8007E2180311030890BEF2800322000A201E7
:1001E8000F3081317E2180311030890BF92800329F
:1001F8002000A201063081317E2180311030890B28
:10020800032900322000A201013081317E21803192
:10021800FA300032890B0D292000A2010230813109
:100228007E218031FA300032890B1729080020001E
:100238002708A1002608A00082315622813120001B
:100248002108AB002008AA00AC014029A201A20A9B
:100258002708A9002608A8002C08280784002908D0
:100268000318290A8500000881317E218131013077
:100278002000A8002808AC072C08A800A9012B0812
:100288002902031D49292A082802031C4C294D2943
:100298002A2908007708F1007608F00082318922BF
:1002A80081317108FB007008FA00FC017029F20125
:1002B800F20A7708F9007608F8007C0878078400C5
:1002C80079080318790A850000088131A82181314D
:1002D8000130F8007808FC077C08F800F9017B0871
:1002E8007902031D79297A087802031C7C297D2963
:1002F8005B2908002000A5002218832986292200EE
:100308008E16882922008E12200025088131CF21DF
:1003180081318231C72281311030890B9129003215
:1003280020002508A3000330A335FF3E031D9829AC
:100338002335A4002408A50025088131CF21813167
:100348008231C72281310800F5007218AC29AF2923
:1003580022008E16B12922008E1275088131F521EE
:1003680081318231CE2281311030890BB929003296
:100378007508F3000330F335FF3E031DBF297335BD
:10038800F4007408F50075088131F5218131823156
:10039800CE22813108002000A000A01BD429D72933
:1003A80022000E15D92922000E112000201BDD295C
:1003B800E02922008E14E22922008E102000A01AC3
:1003C800E629E92922000E14EB2922000E1020004C
:1003D800201AEF29F22922000C15F42922000C1109
:1003E8000800F000F01BF929FC2922000E15FE294F
:1003F80022000E11701B012A042A22008E14062ADC
:1004080022008E10F01A092A0C2A22000E140E2A35
:1004180022000E10701A112A142A22000C15162A0E
:1004280022000C1108002000A80028302802031C14
:100438001E2A1F2A202A362A8030A7002708A80744
:100448002603031D282A292A2D2A4030A700270819
:10045800A807A201280881317E2182311030890B3A
:10046800332A00320800F80028307802031C3D2A9D
:100478003E2A3F2A552A8030F7007708F807760386
:10048800031D472A482A4C2A4030F7007708F80706
:10049800F20178088131A82182311030890B522A63
:1004A8000032080020002108A4002008A300602AC8
:1004B8000130A0070030A13D2008840021088500F4
:1004C8001200031D682A692A5C2A23082002A0005A
:1004D8002408213BA10008002000A8002803031DD0
:1004E800762A772A782A27152603031D7C2A7D2A4F
:1004F8007E2AA714A715A201270881317E218231FF
:100508001030890B852A003208007108F400700841
:10051800F300922A0130F0070030F13D70088400A2
:10052800710885001200031D9A2A9B2A8E2A7308D7
:100538007002F0007408713BF10008003134323465
:100548003334343435343634373438343934003489
:1005580053346C3465346534703469346E346734BC
:100568000034523475346E346E3469346E34673402
:10057800203400345334743461347234743469343C
:100588006E346734003422008E15003222008E113A
:100598000032080022008E15003222008E1100322F
:0205A800080049
:020000040001F9
:04000E00B40FFF1F0D
:00000001FF
